:020000040000FA
:100000007802001069010000710100007301000016
:100010007501000077010000790100000000000078
:100020000000000000000000000000007B01000054
:100030007D010000000000007F010000890A00002F
:1000400083010000830100008301000083010000A0
:100050008301000083010000830100008301000090
:100060008301000083010000830100008301000080
:100070008301000083010000830100008301000070
:1000800083010000830100008B0B0000830100004E
:1000900083010000B90B0000830100008301000010
:1000A0008301000083010000830100008301000040
:1000B0008301000083010000830100008301000030
:1000C00083010000830100008301000000F002F8BA
:1000D00000F03AF80AA090E8000C82448344AAF1A8
:1000E0000107DA4501D100F02FF8AFF2090EBAE8A6
:1000F0000F0013F0010F18BFFB1A43F0010318475C
:10010000D0010000F0010000103A24BF78C878C187
:10011000FAD8520724BF30C830C144BF04680C600D
:10012000704700000023002400250026103A28BF55
:1001300078C1FBD8520728BF30C148BF0B60704759
:100140001FB51FBD10B510BD00F08BF81146FFF7AD
:10015000F7FF00F0C6FC00F0A9F803B4FFF7F2FFC8
:1001600003BC00F0ADF8000009488047094800478B
:10017000FEE7FEE7FEE7FEE7FEE7FEE7FEE7FEE757
:10018000FEE7FEE704480549034A054B70470000B7
:1001900039040000CD000000780000107802001043
:1001A000780000100F20294908604FF0000028490E
:1001B000C1F84801274908607047704701290AD1F2
:1001C000244A12680B4603FA00F342EA0302204B6A
:1001D000C3F84C210BE051B91E4A12684FF00103DD
:1001E00003FA00F322EA0302194BC3F84C217047CB
:1001F00001290AD1184A12680B4603FA00F342EAB1
:100200000302134BC3F848210BE051B9124A12689C
:100210004FF0010303FA00F322EA03020C4BC3F888
:100220004821704710B504460020084908606178ED
:100230002078FFF7DDFFA1782078FFF7BFFF10BD22
:1002400001218140014A11607047000040C10F4008
:1002500000C00F404CC10F4048C10F40704770476D
:100260007047754600F028F8AE46050069465346CB
:1002700020F00700854618B020B5FFF783FFBDE8E2
:1002800020404FF000064FF000074FF000084FF0FD
:10029000000B21F00701AC46ACE8C009ACE8C0098E
:1002A000ACE8C009ACE8C0098D4670470446AFF31E
:1002B00000802046FFF751FF0048704714000010EF
:1002C00001491820ABBEFEE726000200704700007F
:1002D000340C0000000000101400000008010000B1
:1002E000480C00001400001064020000240100000B
:1002F000000000000000000000000000FFFFFFFF02
:1003000080480068C0F30160032864D17E4800681B
:1003100010F0030006D0012823D002283FD0032884
:1003200058D100E000BF77480068C0F30E0000F12C
:1003300001004FEA4000754900FB01F07449D1F813
:100340008810C1F3074101F10101B0FBF1F17148DF
:100350000068C0B200F10100B1FBF0F06E49086026
:1003600038E068480068C0F30E0000F101004FEA71
:1003700040006A4900FB01F06549D1F88810C1F3DB
:10038000074101F10101B0FBF1F162480068C0B220
:1003900000F10100B1FBF0F05F4908601AE0594834
:1003A0000068C0F30E0000F101004FEA0041584818
:1003B000D0F88800C0F3074000F10100B1FBF0F174
:1003C00054480068C0B200F10100B1FBF0F052499E
:1003D000086000BF2FE04C48006810F0030006D012
:1003E000012810D0022819D0032823D100E000BF33
:1003F00048480068C0B200F101004449B1FBF0F088
:100400004549086016E043480068C0B200F10100A9
:100410004249B1FBF0F0404908600BE03D480068FC
:10042000C0B200F101004FF40041B1FBF0F03A49D5
:10043000086000BF00BF70474FF0407001142022D9
:10044000374B1A60324AD2F8A02112F0200F05D0A3
:1004500000BF334A126812F0400FFAD002222D4B2F
:100460001A604FF000022A4BC3F8A8212D4B1A60E6
:100470004FF00102244B1A602B4A2C4B1A604FF0AC
:10048000AA022B4B1A604FF055021A604FF001027E
:10049000284B1A604FF0AA02254B1A604FF0550204
:1004A0001B4BC3F88C2000BF164A126812F0806FF5
:1004B000FAD003221F4B1A604FF0AA02144BC3F864
:1004C0008C204FF055021A4B1A6000BF0D4A12687B
:1004D00002F04072B2F1407FF8D10022164B1A6050
:1004E0004FF400420A4BC3F8C4204FF00002134BF4
:1004F0001A6043F23A02064B1A604FF00002104BAA
:100500001A60704788C00F400CC10F4000093D00C1
:1005100000C00F4004C10F4000000010001BB700D6
:10052000A0C10F40ACC10F401800010084C00F40B3
:100530008CC00F4080C00F4008C10F40C8C10F40A1
:1005400008ED00E001460020052912D2DFE801F0A5
:100550000305080B0E00F8480CE0F748203009E0CE
:10056000F548403006E0F448603003E0F24880305F
:1005700000E000BF00BF704701460020052912D2ED
:10058000DFE801F00305080B0E00EB480CE0EA4839
:10059000203009E0E848403006E0E748603003E0FA
:1005A000E548803000E000BF00BF704701460020F2
:1005B000052912D2DFE801F00305080B0E00DE4822
:1005C0000CE0DD48203009E0DB48403006E0DA4846
:1005D000603003E0D848803000E000BF00BF7047C3
:1005E0002DE9F04107460D4616463846FFF7AAFFAB
:1005F00004463CB11EB120682843206002E0206818
:10060000A8432060BDE8F08170B506460C46304630
:10061000FFF798FF054605B1AC6170BD70B50646A1
:100620000C463046FFF78EFF054605B1EC6170BD04
:1006300070B505462846FFF785FF04460CB1606992
:1006400070BD0020FCE718B912B9BC4B196014E06A
:10065000022803D112B9BA4B19600EE020B9012A61
:1006600002D1B84B196008E0022804D1012A02D156
:10067000B54B196001E000BFFEE7704703463BB988
:1006800032B9B248006820FA01F000F0010070476A
:10069000022B07D132B9AE48006820FA01F000F011
:1006A0000100F4E743B9012A06D1AA48006820FAFC
:1006B00001F000F00100EAE7022B08D1012A06D17F
:1006C000A548006820FA01F000F00100DFE700BF54
:1006D000FEE710B9A14A116006E0022802D1A04A43
:1006E000116001E000BFFEE7704770B504460D469B
:1006F0001646324629462046FFF772FF70BD70B598
:1007000004460D4629462046FFF77EFF70BD70B5B2
:1007100004460D4629462046FFF780FF70BD10B500
:1007200004462046FFF784FF10BD70B504460D4611
:100730001646324629462046FFF785FF70BD70B544
:1007400004460D461646324629462046FFF796FFD8
:1007500070BD10B503460C4621461846FFF7B9FF99
:1007600010BD2DE9F04107460D4616463846FFF705
:10077000E9FE04463CB11EB120692843206102E035
:100780002069A8432061BDE8F0812DE9F041804651
:100790000E4615461F464046FFF7EEFE04468CB156
:1007A00047B11EB16088284360800BE02088284351
:1007B000208007E01EB16088A843608002E02088A6
:1007C000A8432080BDE8F0812DE9F04180460E4627
:1007D00015461F464046FFF7CFFE04468CB147B191
:1007E0001EB1608A284360820BE0208A2843208261
:1007F00007E01EB1608AA843608202E0208AA84315
:100800002082BDE8F0812DE9F04107460E461446EE
:100810003846FFF7B1FE05461DB10EB16C8300E00E
:100820002C83BDE8F0812DE9F04107460E461446C1
:100830003846FFF7A1FE05461DB10EB1EC8300E07E
:10084000AC83BDE8F08170B506460D463046FFF733
:1008500093FE044624B10DB1E08A70BDA08AFCE786
:100860000020FAE72DE9F04180460C4616461F4667
:100870004046FFF79BFE05465DB12FB1032C08DC17
:10088000285D3043285504E0032C02DC285DB0438A
:100890002855BDE8F0812DE9F04180460C4616460A
:1008A0001F464046FFF782FE05469DB14FB1032C1F
:1008B00010DC05F11000005D304305F11001085512
:1008C00008E0032C06DC05F11000005DB04305F1E3
:1008D00010010855BDE8F0812DE9F04107460C46AE
:1008E00015463846FFF762FE064626B1032C02DCA9
:1008F00006F118000555BDE8F0812DE9F0410746E5
:100900000C4615463846FFF751FE064626B1032C25
:1009100002DC06F11C000555BDE8F08170B5064605
:100920000C463046FFF742FE0546DDB1032C19DCCC
:1009300005F11400005D70BD00C0092090800240E8
:10094000B080024094800240B48002408480024023
:10095000A480024088800240A88002408C8002402F
:10096000AC8002400020E6E7F0B504460B46154691
:10097000194660003B4A102901D31039401C52F837
:1009800020604FEA410C032707FA0CF7BE4342F8F8
:10099000206052F820604F0005FA07F73E4342F806
:1009A0002060F0BDF0B504460B46154619466000C0
:1009B0002C4A4032102901D31039401C52F82060D3
:1009C0004FEA410C032707FA0CF7BE4342F82060B8
:1009D00052F820604F0005FA07F73E4342F82060C6
:1009E000F0BD30B50B461F496831012A07D151F8D7
:1009F000204001259D402C4341F8204006E051F85D
:100A0000204001259D40AC4341F8204030BD0128E5
:100A100006D11449896A41F00801124A916206E040
:100A200028B91049896A21F008010E4A916270477D
:100A3000012800D1052201B90A220A4BDA67704762
:100A400010B50446A27861782078FFF78DFFE27830
:100A500061782078FFF7A6FF227961782078FFF788
:100A6000C0FF10BD00C0024010B5002807DACA065A
:100A7000140E674A00F00F031B1FD45403E0CA068C
:100A8000130E644A135410BD63480068401C624949
:100A900008607047604A116800BF5F4A1268521AC6
:100AA0008242FAD3704710B55C4800684FF47A71FF
:100AB000B0FBF1F0441E601EB0F1807F00D30FE068
:100AC000601E4FF0E02148611F214FF0FF30FFF71B
:100AD000CBFF00204FF0E02188610720086100BFB4
:100AE00010BD4F48FFF7ACFFFFF75CFB4D48FFF729
:100AF00099FB04200246464B0C3B19684FF6FF0356
:100B00001940494B0B4343EA0221414B0C3B19600E
:100B100000BF01211220FFF7A7FF04211520FFF7D6
:100B2000A3FF122000F067F8012211460220FFF710
:100B300057FD012202210846FFF752FD0122D10292
:100B40000220FFF780FD152000F055F8FFF7ABFFFE
:100B500000BF364800780028FBD001210220FFF7B3
:100B600053FD4FF4FA70FFF795FF01210220FFF7C4
:100B700055FD4FF4FA70FFF78DFFEAE7002000E023
:100B8000401C2B498842FBD3704710B50020FFF76B
:100B900057FB00240DE001210220FFF735FDFFF790
:100BA000EDFF01210220FFF739FDFFF7E7FF601C91
:100BB000C4B2052CEFDB10BD10B501220B210220C1
:100BC000FFF75CFDB0B14FF400610220FFF781FD3B
:100BD00000240DE002210846FFF716FDFFF7CEFFC7
:100BE00002210846FFF71AFDFFF7C8FF601CC4B2D8
:100BF000052CEFDB10BD00F01F02012191404209DE
:100C00004FF0E02303EB8202C2F8001170470000AE
:100C100018ED00E000E400E01000001000000010FB
:100C200007000010040000100000FA050C0000107E
:100C300000127A0000E1F505000100020A0100003F
:080C40000000000000000000AC
:04000005000000CD2A
:00000001FF
