:020000040000FA
:1000000048070010750100007D0100007F0100001D
:100010008101000083010000850100000000000054
:100020000000000000000000000000008701000048
:1000300089010000000000008B010000A1280000E1
:100040008F0100008F0100008F0100008F01000070
:100050008F0100008F0100008F0100008F01000060
:100060008F0100008F0100008F0100008F01000050
:100070008F0100008F0100008F0100008F01000040
:100080008F0100008F0100008F0100008F01000030
:100090008F0100008F0100008F0100008F01000020
:1000A0008F0100008F0100008F0100008F01000010
:1000B0008F0100008F0100008F0100008F01000000
:1000C0008F0100008F0100008F01000000F002F896
:1000D00000F03FF80AA090E8000C82448344AAF1A3
:1000E0000107DA4501D100F034F8AFF2090EBAE8A1
:1000F0000F0013F0010F18BFFB1A43F0010318475C
:100100000C5200002C520000103A24BF78C878C16D
:10011000FAD8520724BF30C830C144BF04680C600D
:10012000704700000023002400250026103A28BF55
:1001300078C1FBD8520728BF30C148BF0B60704759
:10014000642902F08586002070471FB51FBD10B5D9
:1001500010BD02F0DBFF1146FFF7F7FF02F0D7FBFF
:1001600000F0C4F803B4FFF7F2FF03BC02F0F8FF9D
:1001700000BF70470948804709480047FEE7FEE78F
:10018000FEE7FEE7FEE7FEE7FEE7FEE7FEE7FEE747
:1001900004480549054A064B70470000A9040000C1
:1001A000CD0000004801001048070010480500106D
:1001B00048050010F0B504460B4615461946600088
:1001C0003B4A102901D31039401C52F820604FEAF5
:1001D000410C032707FA0CF7BE4342F8206052F89F
:1001E00020604F0005FA07F73E4342F82060F0BD5B
:1001F000F0B504460B461546194660002C4A4032BD
:10020000102901D31039401C52F820604FEA410CEC
:10021000032707FA0CF7BE4342F8206052F820602B
:100220004F0005FA07F73E4342F82060F0BD30B5B5
:100230000B461F496831012A07D151F8204001259A
:100240009D402C4341F8204006E051F82040012514
:100250009D40AC4341F8204030BD012806D11449EF
:10026000896A41F00801124A916206E028B91049F2
:10027000896A21F008010E4A91627047012800D175
:10028000052201B90A220A4BDA67704710B5044605
:10029000A27861782078FFF78DFFE2786178207886
:1002A000FFF7A6FF227961782078FFF7C0FF10BD25
:1002B00000C002400FB41CB5074B06AA7B44694638
:1002C0000090059802F00FFF0020694600F009F841
:1002D0001CBC5DF814FB0000230000007047704751
:1002E00070470A6802F8010B0A6070470446AFF3D2
:1002F00000802046FFF736FF70470000FFFFFFFF3A
:100300002DE9F047B1480068C0F3016003287CD1B3
:10031000AF48006810F0030006D0012833D002284F
:100320005FD003282ED100E000BFA8480068C0F3CA
:10033000074000F101044FF00201A648D0F8880000
:10034000C0F30E0000F10100A1FB0001A24B4FF031
:10035000000CA0FB037901FB039100FB0C1122466A
:100360006346384602F0D4FC05469C480068C0B29B
:1003700000F1010422464FF00003284602F0C8FCB9
:10038000974908605DE091480068C0F3074000F1BC
:1003900001044FF002018F48D0F88800C0F30E002E
:1003A00000F10100A1FB00108E4A4FF0000CA1FBF0
:1003B000027900FB029001FB0C012246634638469D
:1003C00002F0A6FC054685480068C0B200F10104B1
:1003D00022464FF00003284602F09AFC804908604C
:1003E0002FE07A480068C0F3074000F101044FF0A5
:1003F00002017848D0F88800C0F30E0000F1010037
:10040000A1FB00124FF4004000E01BE04FF000039E
:10041000A1FB007902FB009001FB03012246384654
:1004200002F076FC05466D480068C0B200F1010498
:1004300022464FF00003284602F06AFC6849086033
:1004400000BF2FE06248006810F0030006D00128CA
:1004500010D0022819D0032823D100E000BF5F4844
:100460000068C0B200F101005B49B1FBF0F05C49EB
:10047000086016E059480068C0B200F1010059490F
:10048000B1FBF0F0564908600BE054480068C0B278
:1004900000F101004FF40041B1FBF0F05049086059
:1004A00000BF00BFBDE8F08720204F4908604948E1
:1004B000D0F8A00110F0200F05D000BF4A48006816
:1004C00010F0400FFAD00320444908604FF00000BC
:1004D0004049C1F8A801454908604FF001003C4976
:1004E00008604348434908604FF0AA004249086049
:1004F0004FF0550008604FF00100404908604FF090
:10050000AA003D4908604FF055003249C1F88C00FF
:1005100000BF2E48006810F0806FFAD003203749E2
:1005200008604FF0AA002B49C1F88C004FF055002D
:100530003149086000BF2548006800F04070B0F104
:10054000407FF8D123202E4908604FF0AA002149AE
:10055000C1F8AC004FF055002A4908604FF0010087
:10056000294908604FF0AA00264908604FF055005D
:100570001849C1F8AC0000BF2448006810F4806F2F
:10058000FAD00320204908604FF0AA001149C1F8B1
:10059000AC004FF055001B49086000BF1B480068C5
:1005A00000F44070B0F5407FF8D11948194908604F
:1005B0004FF000000749C1F8C8010846006820F460
:1005C000704040F4804008607047000088C00F40D1
:1005D0000CC10F4000C00F4000093D0004C10F4096
:1005E00000000010001BB700A0C10F40ACC10F40BD
:1005F0006300050084C00F408CC00F4080C00F40D6
:10060000A4C00F40ACC00F40A0C00F40A8C00F4016
:10061000DE872804C4C00F40800400BF0100A0F1A1
:100620000100FBD1704700BF0100A0F10100FBD128
:1006300070470146FE48006C40F0FF00FC4A106421
:100640004FF4001090618010D061104641654FF466
:1006500080109061D061081250650120704710B57C
:1006600004464FF40000F249C861800088612046CA
:10067000FFF7DFFF4FF08070ED49C861FFF778FDAD
:100680004FF08070EA49886110BD10B504464FF400
:100690000000E7498861800088612046FFF7C9FFB4
:1006A0004FF08070E249C861FFF762FD4FF0807043
:1006B000DF49886110BD70B505460C464FF48000D7
:1006C000DB49C8612846FFF7CAFF2046FFF7DDFF78
:1006D0004FF48000D649886170BD70B5044600258E
:1006E0004FF48000D249C8612046FFF7B8FF00F000
:1006F00077FE05464FF48000CD498861284670BDDD
:1007000010B5CB48006840F07E70C94908604FF0D2
:100710007E7088610520FFF77FFF0020FFF7DDFF77
:10072000C449088008460088A0F58A4131397CD147
:1007300001210020FFF7BFFF4FF4C5611020FFF734
:10074000BAFF06211220FFF7B6FF40F63221132030
:10075000FFF7B1FF40211120FFF7ADFF5021152019
:10076000FFF7A9FF16211220FFF7A5FF0F20FFF7C3
:1007700053FF45F260611020FFF79DFF0F20FFF748
:100780004BFF42F64E211320FFF795FF4FF4807187
:100790000120FFF790FF4FF440710220FFF78BFF1D
:1007A00041F230010320FFF786FF40F202210820CA
:1007B000FFF781FF00210A20FFF77DFF0021302095
:1007C000FFF779FF40F202413120FFF774FF4FF449
:1007D00083713220FFF76FFF4FF4E0613320FFF7A2
:1007E0006AFF4FF482713420FFF765FF40F2013158
:1007F0003520FFF760FF40F207713620FFF75BFFFF
:1008000040F205313720FFF756FF4FF402713820D0
:10081000FFF751FF40F60B713920FFF74CFF0F2017
:10082000FFF7FAFE0221412000E028E0FFF743FF36
:100830004FF41C516020FFF73EFF01216120FFF7BC
:100840003AFF40F219119020FFF735FF4FF4857100
:100850009220FFF730FF04219320FFF72CFF4FF485
:100860008071A020FFF727FF0F20FFF7D5FE0021A2
:10087000A020FFF720FF1420FFF7CEFE04E26D4812
:100880000088A0F5134125397DD11021E720FFF71D
:1008900012FF01210020FFF70EFF4FF480710120AD
:1008A000FFF709FF4FF4E0610220FFF704FF41F278
:1008B00030010320FFF7FFFE00210420FFF7FBFEBD
:1008C00040F207210820FFF7F6FE00210920FFF77C
:1008D000F2FE00210A20FFF7EEFE01210C20FFF7B7
:1008E000EAFE00210D20FFF7E6FE00210F20FFF7B2
:1008F000E2FE00211020FFF7DEFE07211120FFF7A6
:10090000DAFE00211220FFF7D6FE00211320FFF7A8
:10091000D2FE0F20FFF780FE41F290511020FFF72A
:10092000CAFE40F227211120FFF7C5FE0F20FFF776
:1009300073FE9C211220FFF7BEFE0F20FFF76CFE16
:100940004FF4C8511320FFF7B6FE23212920FFF7EB
:10095000B2FE0E212B20FFF7AEFE0F20FFF75CFE4C
:1009600000212020FFF7A7FE00212120FFF7A3FE92
:100970000F20FFF751FE07213020FFF79CFE40F2C9
:100980000771312000E08AE0FFF795FE0621322052
:10099000FFF791FE40F204713520FFF78CFE41F61F
:1009A00004713620FFF787FE04213720FFF783FE0E
:1009B00000213820FFF77FFE40F206713920FFF753
:1009C0007AFE40F201713C20FFF775FE0F213D20B9
:1009D000FFF771FE0F20FFF71FFE00215020FFF7E9
:1009E0006AFEEF215120FFF766FE00215220FFF73B
:1009F00062FE40F23F115320FFF75DFE4FF42741A6
:100A00006020FFF758FE01216120FFF754FE00210E
:100A10006A20FFF750FE00218020FFF74CFE0021E6
:100A20008120FFF748FE00218220FFF744FE03E00B
:100A300000C009200800001000218320FFF73BFEC2
:100A400000218420FFF737FE00218520FFF733FEC9
:100A500010219020FFF72FFE00219220FFF72BFEA0
:100A600003219320FFF727FE4FF488719520FFF7AD
:100A700022FE00219720FFF71EFE00219820FFF79D
:100A80001AFE40F233110720FFF715FE0021202047
:100A9000FFF711FE00212120FFF70DFEF4E0FE48D4
:100AA0000088A0F513412039F8D14FF40041E5202A
:100AB000FFF701FE01210020FFF7FDFD4FF48071DB
:100AC0000120FFF7F8FD4FF4E0610220FFF7F3FD8E
:100AD00041F230010320FFF7EEFD00210420FFF773
:100AE000EAFD40F202210820FFF7E5FD0021092080
:100AF000FFF7E1FD00210A20FFF7DDFD00210C20BA
:100B0000FFF7D9FD00210D20FFF7D5FD00210F20B3
:100B1000FFF7D1FD00211020FFF7CDFD00211120AE
:100B2000FFF7C9FD00211220FFF7C5FD00211320AA
:100B3000FFF7C1FD1420FFF76FFD41F2B0711020E7
:100B4000FFF7B9FD40F237111120FFF7B4FD052082
:100B5000FFF762FD40F239111220FFF7ACFD0520CE
:100B6000FFF75AFD4FF4E8511320FFF7A4FD1321BE
:100B70002920FFF7A0FD0520FFF74EFD00212020D2
:100B8000FFF799FD00212120FFF795FD0621302078
:100B9000FFF791FD40F201113120FFF78CFD032199
:100BA0003220FFF788FD4FF483713520FFF783FD76
:100BB00040F602313620FFF77EFD40F20231372049
:100BC000FFF779FD40F207713820FFF774FD072128
:100BD0003920FFF770FD4FF4C0613C20FFF76BFD3B
:100BE00040F20B213D20FFF766FD00215020FFF76A
:100BF00062FDEF215120FFF75EFD00215220FFF73B
:100C00005AFD40F23F115320FFF755FD4FF41C51A0
:100C10006020FFF750FD01216120FFF74CFD00210E
:100C20006A20FFF748FD00218020FFF744FD0021E6
:100C30008120FFF740FD00218220FFF73CFD0021CD
:100C40008320FFF738FD00218420FFF734FD0021C9
:100C50008520FFF730FD10219020FFF72CFD0021AB
:100C60009220FFF728FD03219320FFF724FD4FF486
:100C700088719520FFF71FFD00219720FFF71BFDCE
:100C800000219820FFF717FD41F238010320FFF7FC
:100C900012FD40F273110720FFF70DFD7E4800881A
:100CA000A0F5094189397DD101210020FFF703FD1D
:100CB0000520FFF7B1FC4AF6A4010320FFF7FBFC77
:100CC0000520FFF7A9FC00210C20FFF7F4FC05200C
:100CD000FFF7A2FC40F60C010D20FFF7ECFC05200D
:100CE000FFF79AFC4FF42C510E20FFF7E4FC05208F
:100CF000FFF792FCB0211E20FFF7DDFC0520FFF777
:100D00008BFC42F63F310120FFF7D5FC0520FFF7B1
:100D100083FC4FF4C0610220FFF7CDFC0520FFF7F4
:100D20007BFC00211020FFF7C6FC0520FFF774FCB8
:100D300046F278011120FFF7BEFC0520FFF76CFC9E
:100D400000210520FFF7B7FC0520FFF765FC002117
:100D50000620FFF7B0FC0520FFF75EFC4EF61C7185
:100D60001620FFF7A8FC0520FFF756FC03211720EB
:100D7000FFF7A1FC0520FFF74FFC40F233210720CD
:100D8000FFF799FC0520FFF747FC00210B20FFF738
:100D900092FC0520FFF740FC00210F20FFF78BFCA1
:100DA000052000E0B5E0FFF737FC00214120FFF708
:100DB00082FC0520FFF730FC00214220FFF77BFC7E
:100DC0000520FFF729FC00214820FFF774FC0520CF
:100DD000FFF722FC40F23F114920FFF76CFC052091
:100DE000FFF71AFC00214A20FFF765FC0520FFF7FA
:100DF00013FC00214B20FFF75EFC0520FFF70CFCE5
:100E00004FF46F414420FFF756FC0520FFF704FC28
:100E100000214520FFF74FFC0520FFF7FDFB40F2C6
:100E20003F114620FFF747FC0520FFF7F5FB40F296
:100E300007713020FFF73FFC0520FFF7EDFB4FF473
:100E400001713120FFF737FC0520FFF7E5FB4FF478
:100E500001713220FFF72FFC0520FFF7DDFB40F288
:100E600002513320FFF727FC0520FFF7D5FB40F2A6
:100E700007513420FFF71FFC0520FFF7CDFB4FF48F
:100E800001713520FFF717FC0520FFF7C5FB4FF474
:100E90000171362002E0000008000010FFF70BFC93
:100EA0000520FFF7B9FB40F202513720FFF703FCA2
:100EB0000520FFF7B1FB40F202313A20FFF7FBFBC0
:100EC0000520FFF7A9FB40F202313B20FFF7F3FBBF
:100ED0000520FFF7A1FB00212320FFF7ECFB0520F5
:100EE000FFF79AFB00212420FFF7E5FB0520FFF721
:100EF00093FB4FF400412520FFF7DDFB0520FFF7B2
:100F00008BFB00214F20FFF7D6FB00214E20FFF77F
:100F1000D2FB10BD2DE9F04104460D4616461F4692
:100F2000F7480088A0F5094189391FD1A1B24420B2
:100F3000FFF7C1FBA019401E002242EA002081B247
:100F40004420FFF7B8FBA9B24520FFF7B4FBE8192E
:100F5000401E81B24620FFF7AEFBA1B24E20FFF744
:100F6000AAFBA9B24F20FFF7A6FB1BE0A1B25020BD
:100F7000FFF7A1FBA019401E81B25120FFF79BFB98
:100F8000A9B25220FFF797FBE819401E81B2532007
:100F9000FFF791FBA1B22020FFF78DFBA9B2212022
:100FA000FFF789FBBDE8F08110B54FF4A073F02284
:100FB00000210846FFF7AEFF10BD70B504460D4690
:100FC000CF480088A0F5094189390BD1A9B24E203C
:100FD000FFF771FB40F23F10001B81B24F20FFF77B
:100FE0006AFB0AE0A9B22020FFF765FB40F23F1040
:100FF000001B81B22120FFF75EFB4FF48000C14946
:10100000C8612220FFF72BFBBF480088FFF73DFB9C
:101010004FF48000BB49886170BDBB4908807047B0
:10102000BA490880704770B50546FFF7BDFFB44860
:101030000088A0F50941893907D14E20FFF73BFB15
:1010400000214F20FFF737FB07E000212020FFF7AA
:1010500032FB00212120FFF72EFB4FF48000A9492D
:10106000C8612220FFF7FBFA00F0A0F9002403E09A
:10107000284600F0A5F9641CB4F5963FF8D300F0BB
:101080009AF970BD2DE9F05F0546884614461E4664
:10109000DDF828904FF0000BC5F5A070051B234626
:1010A000324629464046FFF735FF4FF48000954908
:1010B000C8612220FFF7D3FA00F078F9DA4617E08A
:1010C000671E0FE019F80B000121B940084204D156
:1010D0008E48008800F074F903E08B48008800F027
:1010E0006FF97F1E002FEDDA09F101090AF1010AFB
:1010F000B245E5D300F05FF9BDE8F09F2DE9F05F60
:101100000546884614461E46DDF828904FF0000B31
:10111000C5F5A070051B2346324629464046FFF719
:10112000F9FE4FF480007749C8612220FFF797FA53
:1011300000F03CF9DA4617E0671E0FE039F81B00B3
:101140000121B940084204D17048008800F038F904
:1011500003E06D48008800F033F97F1E002FEDDAC0
:1011600009F102090AF1010AB245E5D300F023F9B9
:10117000BDE8F09FF8B505460E4617461C46A4F19B
:101180002000C4B217B1012F1CD10CE0604800EB65
:10119000C400E90006EB4602009050000823062236
:1011A000FFF770FF0EE004EB44005A4901EB00101A
:1011B00005EB4502D1000090300118231022FFF703
:1011C0009DFF00BF00BFF8BD2DE9F04106460D466A
:1011D00017461C46FFF7E8FE07E014F8013B2946D6
:1011E0006D1C3A463046FFF7C5FF20780028F4D141
:1011F000BDE8F08170B590B006460D46FFF7D4FE0D
:1012000015B1012D1CD10DE0002404E0202001A91E
:101210000855601CC4B2362CF8DB002101AA601C02
:1012200011540DE0002404E0202001A90855601CA1
:10123000C4B2142CF8DB002101AA601C115400BFB9
:1012400000BF01AB2A4600213046FFF7BDFF10B0BA
:1012500070BD2DE9F0470546884614461E46DDF868
:1012600020A00AFB04F04FEA902AC5F5A070051BE8
:101270002346324629464046FFF74CFE4FF4800095
:101280002049C8612220FFF7EAF900F08FF84FF0FB
:10129000000911E0671E0BE0574504D31B48008886
:1012A00000F08EF803E01848008800F089F87F1EEF
:1012B000002FF1DA09F10109B145EBD300F07BF819
:1012C000BDE8F0872DE9F05F05460F4614461E463F
:1012D000DDF828B0DA46C5F5A070051B2346324676
:1012E00029463846FFF716FE4FF480000549C861CD
:1012F0002220FFF7B4F900F059F84FF0000918E088
:101300000800001000C009200400001006000010B2
:101310008C3A00000C3E00004FF0000805E03AF85F
:10132000020B00F04DF808F10108A045F7D309F1D0
:101330000109B145F0D300F03EF8BDE8F09F2DE97A
:10134000F05F0646884614461D46DDF828904F4655
:10135000C6F5A070061B23462A4631464046FFF7D5
:10136000D9FD4FF480003749C8612220FFF777F993
:1013700000F01CF805FB04F0401E07EB40074FF09F
:10138000000B0CE04FF0000A05E037F8020900F00E
:1013900017F80AF1010AA245F7D30BF1010BAB458F
:1013A000F0D300F008F8BDE8F09F70474FF400005C
:1013B0002449886170474FF4800022498861704752
:1013C00010B504462046FFF734F94FF080701D49F0
:1013D000C861FEF7CDFE4FF080701A49886110BDDC
:1013E00010B500244FF40000164988614000886160
:1013F0004000C86100BF0846006C20F0FF00086490
:101400004FF40010C8618010C8615020FFF70BF93D
:101410000C48406DC3B24FF400200A498861502047
:10142000FFF701F90748406D63F31F2003464FF4AF
:1014300000100449886100BF1C46000188612046F5
:1014400010BD000000C0092000F0FE00022800DAF4
:101450000220FE490861704708B5FD48006840F465
:101460008060FC49C1F8C400FB48006820F47C207F
:10147000F94908600846006840F428200860F548EB
:10148000D0F8A80120F44010F249C1F8A80108469C
:10149000D0F8A80140F48010F04908604FF0070030
:1014A000EA4908604FF0020048604FF02400FFF75F
:1014B000CBFF00BFE548C06810F0100FFAD102E082
:1014C000E24880680090E148C06810F0040FF7D14E
:1014D00008BD10B5E248006840F04000E0490860EF
:1014E0000846006C086440208861FFF7B5FF10BD16
:1014F00010B5002108E00C2200BF1300A2F1010486
:10150000E2B2FAD14A1C91B28142F4DB10BD01462D
:1015100000BFCE4AD26812F0100FFAD1CB4A9160C8
:1015200000BFCA4AD26812F0100FFAD100BFC74AF2
:10153000D26812F0040FFAD0C44A9268D0B2704751
:1015400070B50020FFF7E3FF05464FF6FF7000EA95
:1015500005240120FFF7CCFF0020FFF7D8FF054648
:101560002C43E410C4F30B04204670BD10B540209A
:10157000BB49C8610120FFF7BBFF9020FFF7C7FF01
:101580000120FFF7B5FFFFF7DBFF04464020B44919
:101590008861204610BD10B54020B149C8610120C6
:1015A000FFF7A6FFD020FFF7B2FF0120FFF7A0FF53
:1015B000FFF7C6FF04464020A9498861204610BDB8
:1015C0002DE9F04104460D46FFF7D0FF0646012005
:1015D000FFF78EFFFFF7DFFF074626602F60BDE8AD
:1015E000F081F0B597B000274821684601F0F3FC80
:1015F00000BF15A916A8FFF7E3FF16984DF82700BE
:1016000009A8159940F82710781CC7B29448406D76
:1016100010F4005F01D1092FEBDB092F7ED1DDE94A
:101620000001084402990844032190FBF1F0129054
:10163000DDE90301084405990844032190FBF1F01A
:101640001390DDE90601084408990844032190FB42
:10165000F1F01490DDE91201441ADDE91301451A95
:1016600012991498461A002C01DD204600E06042D1
:101670000446002D01DD284600E068420546002EA4
:1016800001DD304600E070420646022C06DD022DE8
:1016900004DD022E02DD002017B0F0BDAC4215DAE9
:1016A000A64209DA149A1299881800EBD071C1F396
:1016B0004F016C4A11801EE0DDE91212881800EB20
:1016C000D071C1F34F01674A118014E0AE4209DACC
:1016D000149A1299881800EBD071C1F34F01614A36
:1016E000118008E0DDE91312881800EBD071C1F316
:1016F0004F015C4A1180DDE9091001440B98084450
:10170000032190FBF1F01290DDE90C1001440E98DA
:101710000844032190FBF1F0139000E05AE0DDE96A
:101720000F10014411980844032190FBF1F014902C
:10173000DDE91201441ADDE91301451A12991498E2
:10174000461A002C01DD204600E060420446002DD0
:1017500001DD284600E068420546002E01DD3046E6
:1017600000E070420646022C05DD022D03DD022E4C
:1017700001DD002090E7AC4215DAA64209DA149A9E
:101780001299881800EBD071C1F34F01354A51808E
:101790001EE0DDE91212881800EBD071C1F34F0191
:1017A000304A518014E0AE4209DA149A129988182E
:1017B00000EBD071C1F34F012A4A518008E0DDE906
:1017C0001312881800EBD071C1F34F01254A5180E4
:1017D000244861E700205FE72DE9F04705460C4605
:1017E00016464FF0000921882289891AE388628908
:1017F0009A1A5143A2882389D31A67886289BA1A30
:1018000003FB121001F02FFFC6E90C010022134662
:10181000D6E90C71384601F0BDFE02D14FF0010946
:1018200098E029882A89891AE38862899A1A51439B
:10183000AA882B89D31A67886289BA1A03FB121007
:1018400001F011FFC6E9000121880DE0000003400E
:10185000C4C00F4000C00F4000C00240A8C10F40EC
:1018600000C00920160000102289891AAA882B8935
:10187000D21A51432A88D21AA3882789DB1B02FB7C
:10188000131001F0F0FEC6E902012189AA88514334
:10189000A2882B8902FB13116288514322885A4384
:1018A00023892F8803FB1723E28803FB0212A188F8
:1018B00079432388AF8803FB1713618903FB012059
:1018C00001F0D1FEC6E904016A886989511AE388EA
:1018D00062899A1A5143EB886A899B1A67886289E0
:1018E000BA1A03FB121001F0BEFEC6E906012188F8
:1018F0002289891AEB886A899A1A51436B886A8906
:101900009A1AA3882789DB1B02FB131001F0ABFE98
:10191000C6E908012189EA885143A3886A8903FB43
:1019200012116288514322886B895A4323896F8838
:1019300003FB1723E28803FB0213A188794327885E
:10194000EA8807FB1212618902FB013001F08BFE6D
:10195000C6E90A014846BDE8F0872DE9F04F8BB093
:101960008246894614464FF0000B00221346D4E904
:101970000C51284601F00EFE60D0B9F8020001F0CB
:1019800089FE0546D4E902733A4601F097FECDE997
:101990000201B9F8000001F07DFE0746D4E90053CA
:1019A0002A4601F08BFECDE90001DDE9022301F0BA
:1019B000E5FBCDE90401D4E904532A4601F0DEFB3E
:1019C000CDE90601D4E90C532A4601F08BFCCDE9A0
:1019D000080101F01BFEAAF80000B9F8020001F0AE
:1019E00059FE0746D4E908532A4601F067FECDE9BF
:1019F0000201B9F8000001F04DFE0746D4E9065394
:101A00002A4601F05BFECDE90001DDE9022301F089
:101A1000B5FBCDE90401D4E90A532A4601F0AEFB37
:101A2000CDE90601D4E90C532A4601F05BFCCDE96F
:101A3000080101F0EBFDAAF8020001E04FF0010BF4
:101A400058460BB0BDE8F08F1CB501208DF804009E
:101A500000208DF8030001208DF802001B208DF876
:101A6000010000208DF800006846FEF70FFC1C20E6
:101A70008DF801006846FEF709FCFA49FA4800F0C3
:101A80007AFA01220021F84800F0C3FA1CBD1CB507
:101A900001208DF8040000208DF8030002208DF84D
:101AA00002000A208DF8010000208DF80000684631
:101AB000FEF7ECFB0B208DF801006846FEF7E6FB15
:101AC000E849EA4800F057FA01220021E74800F00F
:101AD000A0FA1CBD2DE9F04F8FB082460E46174686
:101AE00098464FF00A0907FB0990C0B28DF8040030
:101AF000C346002405E01BF8041001AA601C115421
:101B0000C4B20A2CF7DB049601A805900B200690BE
:101B100000200890099003200B90002204A9504651
:101B200000F09FFC012808D1050500E06D1E002D86
:101B3000FCD100200FB0BDE8F08F4FF0FF30F9E787
:101B40002DE9F0438DB080460D4616461C460A2707
:101B500006FB0770C0B20190A146029501A8039050
:101B600001200490CDF818900A20079003200990D6
:101B7000002202A9404600F074FC012803D1002095
:101B80000DB0BDE8F0834FF0FF30F9E72DE9F04FDD
:101B90008FB082460E46174698464FF0080907FB5D
:101BA0000990C0B28DF80400C346002405E01BF87C
:101BB000041001AA601C1154C4B2082CF7DB04966F
:101BC00001A80590092006900020089009900320A4
:101BD0000B90002204A9504600F043FC012808D1D4
:101BE000050500E06D1E002DFCD100200FB0BDE802
:101BF000F08F4FF0FF30F9E72DE9F0438DB08046CC
:101C00000D4616461C46082706FB0770C0B2019019
:101C1000A146029501A8039001200490CDF81890E8
:101C20000820079003200990002202A9404600F0F6
:101C300018FC012803D100200DB0BDE8F0834FF05F
:101C4000FF30F9E72DE9F04F8DB082460E4617467A
:101C500098464FF0040907FB0990C0B28DF80000C8
:101C6000C346002405E01BF80410601C0DF80010AA
:101C7000C4B2042CF7DB0296CDF80CD005200490FA
:101C800000200690079003200990002202A95046E8
:101C900000F0E7FB012808D1050500E06D1E002DCE
:101CA000FCD100200DB0BDE8F08F4FF0FF30F9E718
:101CB0002DE9F0438DB080460D4616461C4604279C
:101CC00006FB0770C0B20190A146029501A80390DF
:101CD00001200490CDF8189004200790032009906B
:101CE000002202A9404600F0BCFB012803D10020DD
:101CF0000DB0BDE8F0834FF0FF30F9E72DE9F04F6C
:101D00008DB082460E46174698464FF0020907FBF3
:101D10000990C0B28DF80400C346002405E01BF80A
:101D2000041001AA601C1154C4B2022CF7DB029605
:101D300001A8039003200490002006900790032040
:101D40000990002202A9504600F08BFB012808D11F
:101D5000050500E06D1E002DFCD100200DB0BDE892
:101D6000F08F4FF0FF30F9E72DE9F0438DB080465A
:101D70000D4616461C46022706FB0770C0B20190AE
:101D8000A146029501A8039001200490CDF8189077
:101D90000220079003200990002202A9404600F08B
:101DA00060FB012803D100200DB0BDE8F0834FF0A7
:101DB000FF30F9E72DE9F04F8DB082460E46174609
:101DC00098464FF0010907FB0990C0B28DF8040056
:101DD000C346002405E01BF8041001AA601C11543E
:101DE000C4B2012CF7DB029601A8039002200490F4
:101DF00000200690079003200990002202A9504677
:101E000000F02FFB012808D1050500E06D1E002D14
:101E1000FCD100200DB0BDE8F08F4FF0FF30F9E7A6
:101E20002DE9F0438DB080460D4616461C4601272D
:101E300006FB0770C0B20190A146029501A803906D
:101E400001200490CDF818900790032009900022FB
:101E500002A9404600F005FB012809D100200DB081
:101E6000BDE8F083400D030000C0014000C0054004
:101E70004FF0FF30F3E700000146F748814201D1FF
:101E800000207047F548814201D10120F9E7F4486C
:101E9000814201D10220F4E74FF0FF30F1E7014623
:101EA000382088612020086000BF086810F0080F03
:101EB000FBD020208861486800F0F8007047016876
:101EC00011F0200F01D0202181611421016008212F
:101ED0008161704702460B46506800F0F8010829FE
:101EE00007D0102905D0182903D0282901D0084689
:101EF0007047106810F0200F01D02020906193608F
:101F00000420106008209061506800F0F800EFE7AE
:101F1000034698680870012A02D10420186001E085
:101F20000420986108209861586800F0F800704714
:101F300070B504460E46C848844205D10E2000F014
:101F40004CFCB0FBF6F510E0C448844205D12620D5
:101F500000F043FCB0FBF6F507E0C148844204D131
:101F6000342000F03AFCB0FBF6F5680820612069E7
:101F7000281A606170BD70B504460D46B6488442AB
:101F800008D10121802000F045FC02210E2000F044
:101F9000DFFB18E0B148844208D10121C80400F0F9
:101FA00039FC0221262000F0D3FB0CE0AC4884422F
:101FB00008D10121880600F02DFC0221342000F018
:101FC000C7FB00E070BD29462046FFF7B1FF642043
:101FD000A06100BFF6E710B504464020A0619E480E
:101FE000844204D10021802000F014FC10E09B48C2
:101FF000844205D100214FF4002000F00BFC07E0E3
:102000009748844204D100214FF0806000F002FC28
:1020100010BD012A07D1012902D04023036004E04A
:102020004423036001E040238361704770B5044698
:102030000D46A5B18848844203D10A2000F068FB10
:1020400021E08648844203D10B2000F061FB1AE0B6
:102050008348844217D10C2000F05AFB13E07E48DD
:10206000844203D10A2000F067FB0CE07B488442E5
:1020700003D10B2000F060FB05E07948844202D1D7
:102080000C2000F059FB70BD2DE9F84305460F46C2
:1020900014464FF00009E168606800EB0108A1698F
:1020A00020694618302F53D00EDC182F38D006DCAC
:1020B000002F70D0082F16D0102F6DD114E0202FD4
:1020C0006BD0282FF9D12CE0502F53D006DC382FBD
:1020D00044D0402F47D0482FEFD184E0582F70D004
:1020E000F82FEAD188E000BFE068A168884208D2F2
:1020F00020784006010E2846FFF7ECFE4FF001095C
:102100000DE0A0696169884209D22078012202EBC2
:102110004000C1B22846FFF7DDFE4FF001096EE036
:1021200000BFE068A16888420CD298F800102846E9
:10213000FFF7D0FE08F10108E068401CE0604FF0B6
:10214000010904E02846FFF7BAFE4FF0080956E0FF
:102150002846FFF7B4FE4FF0080950E0242028601D
:102160000820A8614BE0042028600820A8614FF0F7
:10217000020944E0A069616988421ED2A1696069D0
:10218000801E81420AD2012269462846FFF7C0FE1E
:102190004FF0020909E028E02DE025E00022694621
:1021A0002846FFF7B5FE4FF002099DF8000006F83B
:1021B000010BA069401CA06101E04FF010091EE076
:1021C000FFE7002269462846FFF7A2FE9DF80000BF
:1021D00006F8010BA069401CA0612846FFF76FFEBE
:1021E0004FF010090BE000BF00BF2846FFF767FE65
:1021F0004FF0805903E000BF0820A86100BF00BF76
:102200004846BDE8F883F0B504460E4600209768BE
:102210001368D9195769D368DD1916F0070F71D102
:10222000F7100C3F142F6DD2DFE807F00A1C0B10DB
:102230001D7437757B475A486E6D8181818181821B
:1022400000BF042323600823A36176E024232360D6
:102250000823A36171E0000000C0014000C00540F8
:1022600000000A4000BF53691769BB4208D2D36817
:1022700033B1A36805F8013B53695B1C536102202D
:1022800053691769BB4203D10C23A361022003E009
:10229000042323600823A3614FE053691769BB42FD
:1022A00008D2D36833B1A36805F8013B53695B1CBE
:1022B000536102200C23A3613FE000BF936857687D
:1022C000BB4208D2136833B111F8013BA360936895
:1022D0005B1C93600120042323600823A3612CE08E
:1022E00093685768BB4208D2136833B111F8013BB9
:1022F000A36093685B1C9360012024232360082360
:10230000A3611AE013E000BF042323600823A36144
:10231000082012E000BF042323600823A3611020DB
:102320000BE0042323600823A361202005E000BF05
:10233000042323600823A36100BF00BFF0BD2DE983
:10234000F04105462846FFF797FD07460026F64868
:1023500050F83740686800F0F808C4F82480224636
:1023600041462846FFF790FE064616F0805F10D0E3
:10237000D4E9071088420BD2206A401C206200205A
:10238000E060A0613820A86120202860BDE8F081CD
:1023900011E016F0080F09D0A0696169884200D3E6
:1023A00009E03820A86120202860EFE716F0100F20
:1023B00000D000E0EAE700212846FFF737FE2C2096
:1023C000A8610120D94941F8270000BFDEE72DE9C7
:1023D000F04704462046FFF74FFD80460027D248CD
:1023E00050F8385000BF606800F0F806AE612A4629
:1023F00031462046FFF707FF074617F0805F00D001
:1024000023E017F0200F1AD000212046FFF70EFE20
:102410004FF4803912E0206810F0080F04D0012139
:102420002046FFF703FEDEE7A9F10109B9F1000F2D
:1024300004D1A86940F48060A86106E0EBE717F0DA
:10244000080F00D001E0BDE8F08700212046FFF72B
:10245000EDFD2C20A0610120B54941F8280000BF06
:10246000F1E72DE9F04705460C4617462846FFF7E9
:1024700003FD804600260020E060A0616062002F1E
:1024800044D1206200BF0020E060A0612846FFF731
:1024900006FD814633E0224649462846FFF7F4FD13
:1024A000064616F0805F0BD0206A401C2062D4E9FB
:1024B0000710884203D949F40070606224E0E2E723
:1024C00016F0010F02D116F0020F05D000BF2868E8
:1024D00010F0080FFBD00FE016F0080F08D0A0692D
:1024E0006169884200D30BE02846FFF7D8FC03E07F
:1024F00016F0100F00D003E0686800F0F809CAE792
:1025000000BF0120BDE8F0870020FBE7012F11D1BB
:10251000854840F838400020834901EBC8014860F5
:102520003820A8612020286001212846FFF77EFD81
:102530000120E7E70020E5E72DE9F05F04460D46BE
:1025400017464FF000082046FFF796FC8346002010
:10255000A8606861A861002F3FD104202060382066
:10256000A0614FF0000A4FF0000928E0206810F049
:10257000080F1AD04FF0000A606800F0F8062A46EB
:1025800031462046FFF73FFE804618F0805F00D0BE
:102590001EE018F0200F04D04FF0010A4FF00009A0
:1025A0000DE018F0080F0AD00AE0BAF1000F06D0CB
:1025B000484609F10109B0F5803F00D900E0D5E7B0
:1025C0000420A06146F48060A8610120BDE8F09F6E
:1025D0000420A061AE610020F8E7012F11D152481C
:1025E00040F83B500120504901EBCB0148600420EA
:1025F00020602820A06101212046FFF717FD01205F
:10260000E4E70020E2E710B58B78012B00D100E071
:1026100000234C7843EA4403DAB20B7833B1012B40
:102620000AD0022B0ED0032B18D111E0C260CB7858
:1026300003F0FE03036311E00262CB7803F0FE03B4
:1026400043630BE04262CB7803F0FE03836305E053
:102650008262CB7803F0FE03C36300BF00BF10BDEE
:1026600010B5012A03D1C3690B43C36104E0C369F8
:1026700007248C432340C36110BD012908D1C269DE
:1026800042F00102C261042202602822826105E058
:10269000C26902F00602C2612C2282610022254B2F
:1026A0001A6070470146C86AC0B2704730B5034629
:1026B000002008249C61DC6A1E4D2D684C551D4C81
:1026C0002468641C1B4D2C602C462468944200D363
:1026D000012030BD70B505462846FFF7CDFB044606
:1026E000124850F824600020104941F82400304678
:1026F00070BD70B505462846FFF7BEFB04460C4882
:1027000050F8246000200A4941F82400304670BD8A
:1027100000F01F020121914042094FF0E02303EB3A
:102720008202C2F8001170477C0000109400001073
:10273000A00000102000001000F01F0201219140B5
:10274000024A430942F823107047000080E100E08C
:1027500010B50A46202801D2034601E0A0F120036B
:102760001946202814D2464B1B684FF0030404FA84
:1027700001F423EA0403434CC4F8A831404B1B681E
:1027800002FA01F443EA04033E4CC4F8A83113E012
:102790003D4B1B684FF0030404FA01F423EA0403E1
:1027A000384CC4F8AC31384B1B6802FA01F443EAE8
:1027B0000403344CC4F8AC3110BD0146202903D2C7
:1027C0000A462F4B186803E0A1F120022E4B18682F
:1027D00020FA02F303F00300704770B506462B4859
:1027E00004683046FFF7E9FF054635B1012D06D0F4
:1027F000022D06D0032D08D105E0042505E00125B2
:1028000003E0022501E0082500BF00BFB4FBF5F49A
:10281000204670BD01290AD11D4A12681D4B00EAED
:10282000030342EA0302174BC3F8C4200AE049B984
:10283000174A1268174B23EA000302EA0302114BFE
:10284000C3F8C420704700201349086030BF7047A8
:1028500004201249086000200F49086030BF70470B
:1028600004200E49086001200B49086030BF704702
:1028700004200A49086003200749086030BF7047F8
:10288000A8C10F4000C00F40ACC10F4000000010B5
:10289000C4C00F40DEF7EFEFC0C00F4010ED00E006
:1028A000F8480068401CF74908607047F54A11680D
:1028B00000BFF44A1268521A8242FAD3704730B508
:1028C000F14800684FF47A72B0FBF2F0411E481EE6
:1028D000B0F1807F00D319E0481E4FF0E022506134
:1028E00050171F22002806DAD300E84C00F00F052D
:1028F0002D1F635502E0D300E54C235400BF002098
:102900004FF0E02290610720106100BF30BDFFF75B
:102910009BF8E04B00225021DF48FFF76DF9DD4BBB
:10292000083301225021DC48FFF766F9D94B1033F8
:1029300002225021D848FFF75FF9D64B1833032203
:102940005021D548FFF758F9D24B203304225021AB
:10295000D148FFF751F9CF4B283305225021CE48FB
:10296000FFF74AF9CB4B303306225021CA48FFF714
:1029700043F9CA4B64225021C748FFF751FAFFF7C9
:102980009EFFFDF7BDFE0020FEF74DFB0020FEF789
:1029900047FB4FF6E070FEF740FBFEF79AFDBF489D
:1029A000007800287CD1FEF71CFEBD490068086055
:1029B00032217820FEF701FB00BFFEF712FEB94975
:1029C0000068086008460088B5490988884205D132
:1029D000B4484088B24949888842EED04FF4FA6042
:1029E000FFF764FFC8211E20FEF7E7FA00BFFEF7DD
:1029F000F8FDAC490068486008468088A849098805
:102A0000884205D1A748C088A54949888842EED0A8
:102A10004FF4FA60FFF74AFFBE214FF49170FEF7C2
:102A2000CCFA00BFFEF7DDFD9E49006888600846CD
:102A300000899B490988884205D19A48408998496C
:102A400049888842EED04FF4FA60FFF72FFF964A8C
:102A500094499648FEF7C0FE9348D0E900108D4A8D
:102A6000C2E900109048D0E90210C2E902108E4875
:102A7000D0E90410C2E904108B49D1E90601C2E98A
:102A800006018948D0E90810C2E908108649D1E951
:102A90000A01C2E90A018448D0E90C10C2E90C100D
:102AA0004FF47A70FFF702FF0020FEF7BCFA80A314
:102AB000012202210020FEF787FBBE214FF4917016
:102AC000FEF77BFA00BFFEF78CFD7E4900680860C8
:102AD0000846008872490988884205D179484088AB
:102AE0006F4949888842EED06A4A76497648FEF7AF
:102AF00034FF7548028875A17948FDF7DBFB784BF8
:102B0000012202211046FEF75FFB6F48428875A143
:102B10007348FDF7CFFB724B012202210846FEF7F6
:102B200053FB4FF4FA60FFF7C1FE0020FEF77BFA7B
:102B3000FEF757FD5A490068086000BF00BFFEF766
:102B400050FD6049006808600846008854490988BB
:102B5000884205D15B484088514949888842EED077
:102B60004C4A58495848FEF7F8FE56480088B0F5D8
:102B7000A07F7DDA53484088B0F5E67F09DD5148F3
:102B8000408840F24231884203DA0020FEF74BFAD7
:102B90000EE04C48408840F29241884208DD4948A6
:102BA000408840F2DC51884202DA1F20FEF73BFAEF
:102BB00044484088B0F5E16F3FDD42484088B0F5B9
:102BC000076F3ADA4FF4FC60FEF72DFA314B002222
:102BD00050213148FEF7DAFF2E4B083301225021F5
:102BE0002D48FEF7D3FF2B4B1033022250212A48E9
:102BF000FEF7CCFF274B1833032250212648FEF75F
:102C0000C5FF244B2033042250212348FEF7BEFF8A
:102C1000204B2833052250211F48FEF7B7FF1D4BDC
:102C20003033062250211C48FEF7B0FF324B64229D
:102C300050211948FFF7BEF880E72248408840F647
:102C40008D11884205DD1F48408840F6FA218842F0
:102C5000F2DB1C48408840F653418842ECDD1948BD
:102C6000408840F6ED518842E6DA4FF4784000E0C3
:102C700046E0FEF7D8F9214B642250210648FFF7C1
:102C800099F85BE7280000100000001018ED00E044
:102C900000E400E0B000001000C00140350000106A
:102CA0002C00001070000010380000100A00001006
:102CB00050726573732061206C6F636174696F6E0D
:102CC00021000000300000101A0000104361622053
:102CD000706F696E742E782069733A253364000032
:102CE0003400001043616220706F696E742E792089
:102CF00069733A2533640000250000102400001099
:102D0000024A51881088FEF758F917E71A00001098
:102D100053EA020C00F069802DE9F04B4FF00006F9
:102D2000002B1FBFB3FA83F503FA05F424FA05F666
:102D30005E4012BF1643B2FA82F502FA05F4C5F1FD
:102D400020051EBF22FA05FC44EA0C04203556EA91
:102D5000044C4FEA144418BF641C4FF000084FF0B5
:102D60000009904271EB030C39D3002919BFB1FA65
:102D700081F701FA07F6B0FA80F700FA07F6C7F113
:102D800020071EBF20FA07FC46EA0C062037B6FBD8
:102D9000F4FCA7EB0507103F07F01F0BCBF1200653
:102DA0000CFA0BFB2CFA06F644BFB3460026202F84
:102DB000A4BF5E464FF0000B5BEA060C08BF4FF065
:102DC000010B19EB0B09ABFB027C48EB0608C01B9F
:102DD00006FB02CC0BFB03CC71EB0C01C1E70B46ED
:102DE000024641464846BDE8F08B13B54FF000005F
:102DF0004FF00001AFF30080BDE81C40704770B594
:102E0000044685690068C10601D5302600E0202609
:102E1000C00708D070BDD4E9012130469047206A30
:102E200000F1010020626D1EF5D570BD70B504463D
:102E300085690078C00708D170BDD4E90121202040
:102E40009047206A00F1010020626D1EF5D570BD2B
:102E50002DE9F0410646002410687529314616A573
:102E600011D0AFF30080002803DAC0F1000013A5F1
:102E700007E031688A0701D511A502E0490704D5AA
:102E800010A5012401E0AFF3008000210A2306F120
:102E9000240707E0B0FBF3F203FB12003030785454
:102EA0001046491C0028F5D123462A463046BDE885
:102EB000F04100F0B7B80000000000002D00000055
:102EC0002B000000200000002DE9F0474FF0000A21
:102ED00089460446C0F820A02046E16888470028BB
:102EE00076D0252806D0D4E901219047206A401CDD
:102EF0002062F1E7E168204600258847C4F81CA05D
:102F000006460027C4F818A02A2E09D0304600F043
:102F10002DF938B304EB8708303EC8F8186019E083
:102F200059F8041B204604EB87029161E168884749
:102F3000012F064618D1E069002820DA25F0200587
:102F40001DE0D8F8180000EB800006EB4000303898
:102F5000C8F818002046E1688847064600F006F9E0
:102F60000028EED1012F0AD02E2E08D12046E1688C
:102F700088477F1C0646022F45F02005C4DBA06968
:102F8000002803DA404245F00105A061E80701D0BE
:102F900025F01005B6B1A6F14100192802D8203657
:102FA00045F400654A463146204625604D46FDF70A
:102FB000C7F858B1012806D0ED1D25F0070000F133
:102FC000080989E704E005F1040985E730468AE746
:102FD000206ABDE8F0874FF0000200B51346944622
:102FE0009646203922BFA0E80C50A0E80C50B1F161
:102FF0002001BFF4F7AF090728BFA0E80C5048BF75
:103000000CC05DF804EB890028BF40F8042B08BF12
:10301000704748BF20F8022B11F0804F18BF00F80E
:10302000012B70472DE9F0470D469946924604461C
:1030300000F124080168880604D5E06921F0100138
:10304000216000E00120A84202DDA0EB050700E0BE
:103050000027A16907EB050202EB0900A1EB0000C4
:10306000A0612078C00602D42046FFF7C8FE0026E3
:1030700008E0D4E901211AF806009047206A401CB4
:10308000761C20624E45F4DB2078C0060AD5204627
:10309000FFF7B5FE06E0D4E9012130209047206A11
:1030A000401C2062381EA7F10107F4DC07E0D4E9D8
:1030B000012118F805009047206A401C2062281E54
:1030C000A5F10105F3DC2046FFF7B0FE20780006ED
:1030D00002D50220BDE8F0870120FBE701694A1C08
:1030E00002610878704700B58FB0CDE90131002149
:1030F000059105497944CDE9031011466846FFF76B
:10310000E3FE0FB000BD0000E5FFFFFF754600F0D5
:1031100023F8AE4605006946534620F00700854671
:1031200018B020B5FDF734F8BDE820404FF0000698
:103130004FF000074FF000084FF0000B21F007019F
:10314000AC46ACE8C009ACE8C009ACE8C009ACE8E2
:10315000C0098D467047000000487047E800001025
:1031600001491820ABBEFEE72600020030380A28CD
:1031700001D20120704700207047000010B591EA8D
:10318000030F48BF83F0004300F19E83841A71EB64
:10319000030C05D2121943EB0C03001B61EB0C016D
:1031A000DFF824E14FEA1154A4EB135C1EEA430F4D
:1031B00018BF9EEA445F73D023EA0E03DCF1200EB1
:1031C00021EA045143F4801332D322FA0CFE10EBAF
:1031D0000E0023FA0CFE41EB0E01CCF1200E03FA97
:1031E0000EFE10EB0E0051F10001B1F5801FCCF185
:1031F000200E32D201EB045112FA0EF2BDE810405B
:1032000058BF7047401C38BF5FEA420218BF704782
:10321000002814BF20F0010041F100014FEA4103F2
:1032200013F5001F38BF7047A1F1C04100F03EBB4D
:10323000012A43EB0302ACF1200CDCF11F0E32BF7C
:103240004FF0000E23FA0CF310EB030041EB045196
:10325000B4EB115FD0D0A1EB045101F58011490806
:103260005FEA300001EB04510ED350F1000038BF8B
:1032700012FA0EFE08D1BDE81040C9E7401C38BF65
:103280005FEA4202CAD1C3E7BDE810404FEA4103FA
:1032900013F5001F38BF7047A1F1C04100F006BB15
:1032A0009EEA445F08D011EA5E0FBDE8104004BFFB
:1032B00001F0004100207047BDE8104070B500F0FB
:1032C000A7FA00BF64FBBE3E0000E0FF491058BFF4
:1032D000C1F140415B1058BFC3F140438B42EFF353
:1032E000008070472DE9C04130B4DFF8A0C23CEA4D
:1032F000111418BF3CEA131400F0EC8081EA0305B6
:103300001CEA111444EAD57418BF1CEA131500F026
:10331000C780A4EB05044FF0004545EAC12145EA0A
:10332000C32341EA505143EA525304F17F74994256
:1033300004F500344FEAC0204FEAC22208BF904291
:1033400000F09C804FEA13650FF24016765D4FEA5D
:10335000134506FB05F7C7F1807706FB07F74FEA31
:10336000D737A7FB03687642C8F58038A7FB06CE9F
:1033700038BFA8F1010807FB08E64FF0000EA6FBD6
:10338000028CE6FB03CEDCF1000CCEF1004E38BF20
:10339000AEF1010EA6FB0C584FF000074FF00005F0
:1033A000E6FB0E87A1FB08C6A0FB07CE16EB0E06B8
:1033B00045F10005E1FB076515F1E04E7EBFA4F580
:1033C00080345FEA46066D4116F1800745F100053D
:1033D0004FEA17274FEA066647EA0567A6F1DE4679
:1033E000B6F1805F4FEA15251FD9384624F0010C4D
:1033F00005EBC471BCF1FE6F01EB0C1102D8F0BCFF
:10340000BDE8008124425CBF01F5801E9EEAC47FB6
:1034100002D4F0BCBDE80081244238D4F0BCA1F154
:10342000C041BDE8004100F041BA4FEAD22242EA71
:1034300043524FEAD323A7FB02864FEAD02040EA4B
:10344000415007FB03661EEA0E0F4FEAD12105FB30
:10345000026658BFA6EB0056B6EB00564FEA520E76
:103460004EEAC37E18EB0E0E56EB530EBDD518EB8D
:1034700002085E417F1C55F10005B6E74FF4801548
:103480004FF000074FF000064FF00008ADE7F0BC2A
:103490004FF0000001F1C04101F00041BDE80081A2
:1034A00011EA0C1F0CEA131500D00CE013EA0C1FF4
:1034B00000F025804FF00000F0BC81EA030101F02C
:1034C0000041BDE80081F0BCBDE8004181EA030194
:1034D00000F0ECB9F0BCBDE8004170B500F098F91F
:1034E000097EFC3E00F007B881EA03014FF00000BE
:1034F00001F00041704781EA030100F0D7B9F0BC48
:10350000BDE800414FF0000021497047FFFDFBF985
:10351000F7F5F4F2F0EEEDEBE9E8E6E4E3E1E0DE06
:10352000DDDBDAD8D7D5D4D3D1D0CFCDCCCBCAC878
:10353000C7C6C5C4C2C1C0BFBEBDBCBBBAB9B8B79F
:10354000B6B5B4B3B2B1B0AFAEADACABAAA9A8A892
:10355000A7A6A5A4A3A3A2A1A09F9F9E9D9C9C9B60
:103560009A9999989797969595949393929191900B
:103570008F8F8E8E8D8C8C8B8B8A8989888887879C
:103580008685858484838382828181800000FF0711
:103590000000F87F51EA030C17D41CF5801F58BFB8
:1035A000BCF5801F00F10680994218BF704708BF24
:1035B0009042704707D711F5801F58BF13F5801F41
:1035C00019D499427047894270471CF5801F08D56D
:1035D000BCF5801FF7D58B4218BF704708BF8242E9
:1035E00070474FF4001C1CEB410F38BF1CEB430F1E
:1035F00001D28B42704770B500F00AF9922449005D
:103600004FF000514FF08053FFF760BE4FEA115367
:10361000A3F58063D3F11E03A8BFD3F1200C08DB10
:103620004FF0004242EAC12252EA505232FA03F00D
:10363000704709420BD4102BC4BF0020704703F51C
:10364000787CBCF1FF3F05D04FF0FF3070474FF062
:103650000000704770B500F0DBF800BF499224808D
:1036600000207047F0E710F0004248BF4042B0FA37
:1036700080F310FA03F10AD0C3F11D0303F5806350
:103680004FEA415002EB035202EBD12170474FF059
:1036900000007047B0FA80F310FA03F10AD0C3F1CA
:1036A0001D0303F580634FEA41504FEA035202EBDA
:1036B000D12170474FF0000070470000DFF848C18B
:1036C00070B51CEA111E1EBF1CEA13159EEA0C0FF2
:1036D00095EA0C0F00F06F8081EA030423EA4C1393
:1036E0004EEAD47E21EA4C1141F4801143F4801358
:1036F000AE44A1FB024CA0FB0365AEF17F7E361900
:1037000055EB0C05A1FB034C4CF10003A0FB021C84
:1037100016EB0C06654153F10003094218BF46F051
:10372000010613F4007F0BD14FEA03314FEA053055
:10373000340341EA155140EA16506FF003020AE0E3
:103740004FEAC3214FEAC520F40241EA555140EA4D
:1037500056506FF0020202EB2E4201EB025585EA51
:10376000CE710AD05FEA440C18BF24F0004450F137
:10377000000041F1000120EAD47040F2FE7C624575
:1037800000D270BDA84214BF4FF080444FF04044B7
:10379000002E08BF0024BEF1806FA8BFA1F1C04178
:1037A000BDE8704080F282804FF0000001F1C0411E
:1037B00001F0004170479EEA0C0F0CEA131518BF88
:1037C00095EA0C0F06D04FF0000081EA030E0EF0D0
:1037D000004170BD00F01CF88900013E00F007B800
:1037E00000F009B84FEA430C5FEA5C5C08D081EA5C
:1037F000030100F05BB84FEA410C5FEA5C5CF6D174
:103800004FF00000014970470000FF070000F87FFB
:103810000EF1020E2EF0030E5EF8046B364205D454
:10382000012A43EB030515F5001F12D8012841EBCF
:10383000010C1CF5001F0CD80ED14FEAD17C15F5F8
:10384000001F0CEB4C0C0CF1020C08BF4CEBD37CB2
:1038500004E04FF0080C01E04FEAD37C0CEB4C0580
:1038600026FA05F606F00706B6F1040C06D20EEBB2
:10387000860CBDE870404CF0010C6047DFE80CF0AE
:10388000090B02024FF000414FF00000A1F50021AA
:1038900070BD19461046012851EB010418BFD4F53C
:1038A000001484BF002001F0004170BD0808A0F59D
:1038B00000114FEA3101704710B591EA030F48BF7C
:1038C00083F000433FF562AC841A71EB030C07D21E
:1038D00012198CF0004C43EB0C03001B61EB0C0144
:1038E000DFF8A4E14FEA1154A4EB135C1EEA430F86
:1038F00018BF9EEA445F00F0B08023EA6E03524294
:1039000021EA0451C3EB6E0338BF5B1EDCF1200ECD
:1039100025D322FA0CFE10EB0E0043FA0CFE41EB0D
:103920000E01CCF1200E03FA0EFE10EB0E0051F149
:103930000001CCF1200E29D412FA0EF201EB045151
:10394000BDE8104058BF7047401C1CBFB2F1004F8B
:10395000704700280CBF491C20F00100704712EB93
:10396000020E43EB030218BF4FF0010E4EEA420273
:10397000ACF1200CDCF11E0E54D943FA0CFE10EB16
:103980000E0051F1FF31CCF11E0ED5D50EF1010E16
:1039900012FA0EFE404141EB010101EB445C5FEA8B
:1039A0005C5C10D910EBDE7001EB045138BFBEF146
:1039B000004FBDE8104018BF704700280CBF491CDD
:1039C00020F00100704730D24FEAD42C11F50011DD
:1039D00024F400641BD0B1FA81F20B3AA41AA41E9D
:1039E000D2F12003914030FA03F31943904001EBE8
:1039F000CC71002C01EB0451BDE81040A8BF70470A
:103A000001F1C0414FF0000001F000417047B0FAF1
:103A100080F310FA03F100D110BDE41A173C4805F9
:103A2000C90AE4E701EB045110BD491001EB045150
:103A3000BDE810404FEA300002E04FF0000170474F
:103A40004A0008BF0042F8D0B2F5001F28BF7047F7
:103A500001F000414FF0000070479EEA445F07D03C
:103A600011EA5E0FBDE8104004BF0021002070473E
:103A7000BDE8104070B5FFF7CBFE00BF40DFF63E5B
:103A800083F00041104670470000E0FF0000000096
:103A90000000000004040404040004000A0A0A00F0
:103AA000000000000A0A1F0A1F0A0A00041E050E71
:103AB000140F04000313080402191800020505027C
:103AC000150916000C0C0402000000000804020294
:103AD0000204080002040808080402000004150E8D
:103AE0000E1504000004041F040400000000000080
:103AF0000C0C04020000001F000000000000000089
:103B0000000C0C0000100804020100000E11131537
:103B100019110E000406040404040E000E11100E08
:103B200001011F001F10080C10110E00080C0A09DB
:103B30001F0808001F010F1010110E001C02010FBA
:103B400011110E001F101008040201000E11110EB9
:103B500011110E000E11111E1008070000000400C4
:103B60000400000000000400040402001008040225
:103B70000408100000001F001F00000002040810CD
:103B8000080402000E11100C040004000E11151D93
:103B90000D011E00040A11111F1111000F11110F48
:103BA00011110F000E11010101110E000F11111161
:103BB00011110F001F01010F01011F001F01010F53
:103BC000010101001E11010119111E001111111F27
:103BD000111111000E04040404040E001C0808084E
:103BE0000809060011090503050911000101010179
:103BF00001011F00111B15151511110011111315CD
:103C0000191111000E11111111110E000F11110FC8
:103C1000010101000E111111150916000F11110FEC
:103C2000050911000E11010E10110E001F150404DC
:103C3000040404001111111111110E0011111111C0
:103C4000110A04001111111515150A0011110A04A9
:103C50000A11110011110A04040404001F10080EB7
:103C600002011F001E02020202021E0000010204E5
:103C7000081000001E10101010101E00040A110081
:103C8000000000000000000000001F0006060408FD
:103C900000000000000006080E091E0001010D13BF
:103CA00011130D0000000E1101110E001010161955
:103CB0001119160000000E111F010E000814040E49
:103CC0000404040000000E191916100E01010D1352
:103CD000111111000400060404040E000800080875
:103CE000080906000101090503050900060404048A
:103CF00004040E0000000B151515150000000D132F
:103D00001111110000000E1111110E0000000D1311
:103D1000130D0101000016191916101000000D13E3
:103D20000101010000001E010E100F0004041F0419
:103D300004140800000011111119160000001111DF
:103D4000110A04000000111115150A000000110AE3
:103D5000040A1100000011111E10110E00001F08AE
:103D600004021F0008040402040408000404040000
:103D700004040400020404080404020002150800FC
:103D800000000000000000000000000000000C1215
:103D9000120C000000000C1E1E0C000000001E1281
:103DA000121E000000001E1E1E1E000000000C0C53
:103DB000121E000000000C0C1E1E000000001E124F
:103DC0000C0C000000001E1E0C0C00000000181659
:103DD000161800000000181E1E1800000000061A29
:103DE0001A0600000000061E1E06000000000C124D
:103DF000120C000000000C1E1E0C000000001E1221
:103E0000121E000000001E1E1E1E0000000000000A
:103E100000000000000000000000000000000000A2
:103E20000000000000000000000000000000000092
:103E30000000000000000000000000000000800101
:103E4000800180018001800180018001800180016A
:103E5000800180018001800100000000800180015C
:103E60000000000000000000000000000000000052
:103E7000CC00CC00CC00CC00CC00CC00000000007A
:103E80000000000000000000000000000000000032
:103E90000000000000000000000000000000000022
:103EA0000000000000000000600C600C600C300698
:103EB0003006FE1FFE1F300638071803FE1FFE1FC8
:103EC000180318038C018C018C0100000000800095
:103ED000E003F80F9C0E8C1C8C188C009800F801E5
:103EE000E007800E801C8C188C189C18B80CF00F02
:103EF000E0038000800000000000000000000000DF
:103F000000000E181B0C110C1106110611031103F1
:103F10009B018E01C038C06C604460443044304422
:103F20001844186C0C380000000000000000E0018C
:103F3000F0033807180618063003F001F000F80007
:103F40009C310E33061E061C061C063FFC73F02136
:103F50000000000000000000000000000000000061
:103F60000C000C000C000C000C000C000000000009
:103F70000000000000000000000000000000000041
:103F8000000000000000000000000000000000022F
:103F900000038001C000C0006000600030003000FD
:103FA0003000300030003000300030006000600031
:103FB000C000C000800100030002000000002000DB
:103FC0006000C000800180010003000300060006BD
:103FD00000060006000600060006000600030003B7
:103FE00080018001C000600020000000000000008F
:103FF0000000000000000000C000C000D806F80764
:10400000E00130033807000000000000000000005D
:1040100000000000000000000000000000000000A0
:10402000000000000000000080018001800180018C
:104030008001FC3FFC3F8001800180018001800104
:104040000000000000000000000000000000000070
:104050000000000000000000000000000000000060
:1040600000000000000000000000000000008001CF
:10407000800100010001800000000000000000003D
:104080000000000000000000000000000000000030
:1040900000000000E007E007000000000000000052
:1040A0000000000000000000000000000000000010
:1040B0000000000000000000000000000000000000
:1040C0000000000000000000000000000000C00030
:1040D000C000000000000000000000000000000C14
:1040E000000C000600060006000300030003800326
:1040F000800180018001C000C000C000600060003D
:104100000000000000000000000000000000E003CC
:10411000F007380E180C0C180C180C180C180C188A
:104120000C180C180C180C18180C380EF007E003BB
:10413000000000000000000000000000000000017E
:104140008001C001F0019801880180018001800197
:104150008001800180018001800180018001800157
:104160000000000000000000000000000000E0036C
:10417000F80F180C0C180C1800180018000C00068A
:1041800000038001C000600030001800FC1FFC1F0D
:104190000000000000000000000000000000E0013E
:1041A000F807180E0C0C0C0C000C0006C003C0071E
:1041B000000C001800180C180C18180CF807E00375
:1041C0000000000000000000000000000000000CE3
:1041D000000E000F000F800DC00C600C600C300C46
:1041E000180C0C0CFC3FFC3F000C000C000C000CED
:1041F0000000000000000000000000000000F80FB8
:10420000F80F180018000C00EC03FC071C0E001C33
:104210000018001800180C181C0C180EF807E00302
:104220000000000000000000000000000000C007C7
:10423000F00F381C181818000C00CC03EC0F3C0EC3
:104240001C1C0C180C180C18181C380EF007E00376
:104250000000000000000000000000000000FC1F43
:10426000FC1F000C00060006000380038001C00153
:10427000C000E000600060007000300030003000DE
:104280000000000000000000000000000000E0034B
:10429000F007380E180C180C180C3806F007F00749
:1042A000180C0C180C180C180C18380CF80FE0032C
:1042B0000000000000000000000000000000E0031B
:1042C000F007380E1C0C0C180C180C181C1C381E8F
:1042D000F81BE0190018000C000C1C0EF807F00188
:1042E00000000000000000000000000000000000CE
:1042F00000000000000000008001800100000000BC
:1043000000000000000000000000000080018001AB
:10431000000000000000000000000000000000009D
:10432000000000000000000080018001000000008B
:10433000000000000000000000000000800180017B
:1043400000010001800000000000000000000000EB
:104350000000000000000000000000000010001C31
:10436000800FE003F8001800F800E003800F001C45
:10437000001000000000000000000000000000002D
:10438000000000000000000000000000F81F000016
:1043900000000000F81F0000000000000000000006
:1043A000000000000000000000000000000000000D
:1043B00000000000000000000000000008003800BD
:1043C000F001C007001F0018001FC007F0013800EF
:1043D0000800000000000000000000000000E003F2
:1043E000F80F180C0C180C180018000C000600032D
:1043F0008001C000C000C00000000000C000C0007C
:1044000000000000000000000000000000000000AC
:10441000E00718180420C229224A1144094409441B
:10442000094409221113E20C024004201818E00785
:1044300000000000000000000000000000008003F9
:104440008003C006C006C006600C600C301830182F
:104450003018F83FF83F1C700C600C6006C006C0B6
:104460000000000000000000000000000000FC034D
:10447000FC0F0C0C0C180C180C180C0CFC07FC0F87
:104480000C180C300C300C300C300C18FC1FFC07D6
:104490000000000000000000000000000000C00755
:1044A000F01F38381C300C7006600600060006004D
:1044B00006000600060006600C701C30F01FE007C6
:1044C0000000000000000000000000000000FE03EB
:1044D000FE0F060E061806180630063006300630A7
:1044E00006300630063006180618060EFE0FFE03CC
:1044F0000000000000000000000000000000FC3F81
:10450000FC3F0C000C000C000C000C00FC1FFC1FFE
:104510000C000C000C000C000C000C00FC3FFC3FDD
:104520000000000000000000000000000000F83F54
:10453000F83F18001800180018001800F81FF81F9E
:1045400018001800180018001800180018001800AB
:104550000000000000000000000000000000E00F6C
:10456000F83F3C780E6006E007C00300030003FE3E
:1045700003FE03C007C006C00EC03CF0F83FE00FCA
:1045800000000000000000000000000000000C30EF
:104590000C300C300C300C300C300C30FC3FFC3F3D
:1045A0000C300C300C300C300C300C300C300C302B
:1045B000000000000000000000000000000080017A
:1045C00080018001800180018001800180018001E3
:1045D00080018001800180018001800180018001D3
:1045E00000000000000000000000000000000006C5
:1045F000000600060006000600060006000600068B
:10460000000600060006180618063807F003E00149
:104610000000000000000000000000000000063064
:104620000618060C060606038601C600660076001C
:10463000DE008E0106030606060C0618063006602C
:104640000000000000000000000000000000180052
:10465000180018001800180018001800180018009A
:10466000180018001800180018001800F81FF81F8C
:1046700000000000000000000000000000000EE04C
:104680001EF01EF01EF036D836D836D836D866CC96
:1046900066CC66CCC6C6C6C6C6C6C6C686C386C3F4
:1046A00000000000000000000000000000000C30CE
:1046B0001C303C303C306C306C30CC30CC308C31E9
:1046C0000C330C330C360C360C3C0C3C0C380C30D8
:1046D0000000000000000000000000000000E007F3
:1046E000F81F1C380E70066003C003C003C003C06F
:1046F00003C003C003C006600E701C38F81FE0073B
:104700000000000000000000000000000000FC0F9E
:10471000FC1F0C380C300C300C300C300C18FC1F0B
:10472000FC070C000C000C000C000C000C000C0032
:104730000000000000000000000000000000E00792
:10474000F81F1C380E70066003E003C003C003C0EE
:1047500003C003C007E006630E3F1C3CF83FE0F7D0
:1047600000C0000000000000000000000000FE0F7C
:10477000FE1F06380630063006300638FE1FFE07DC
:1047800006030606060C06180618063006300660F4
:104790000000000000000000000000000000E00336
:1047A000F80F1C0C0C180C180C001C00F803E00F80
:1047B000001E0038063006300E301C1CF80FE007D3
:1047C0000000000000000000000000000000FE7F6C
:1047D000FE7F8001800180018001800180018001D5
:1047E00080018001800180018001800180018001C1
:1047F00000000000000000000000000000000C307D
:104800000C300C300C300C300C300C300C300C30C8
:104810000C300C300C300C300C301818F81FE0073E
:104820000000000000000000000000000000036025
:104830000630063006300C180C180C18180C180C22
:10484000380E30063006700760036003C001C001F7
:1048500000000000000000000000000000000360F5
:10486000C361C361C36166336633663366336633DF
:1048700066336C1B6C1B6C1B2C1A3C1E380E380EDE
:1048800000000000000000000000000000000FE039
:104890000C7018303018700C600EC0078003800355
:1048A000C003E006700C301C18180C300E6007E0D6
:1048B000000000000000000000000000000003C035
:1048C00006600C301C383818300C6006E007C00356
:1048D00080018001800180018001800180018001D0
:1048E0000000000000000000000000000000FC7F4D
:1048F000FC7F006000300018000C000600038001FF
:10490000C0006000300018000C000600FE7FFE7F33
:104910000000000000000000000000000000E003B4
:10492000E003600060006000600060006000600004
:104930006000600060006000600060006000600077
:10494000600060006000E003E00300000000300051
:104950003000600060006000C000C000C000C00106
:1049600080018001800100030003000300060006AF
:104970000000000000000000000000000000E00354
:10498000E00300030003000300030003000300032F
:1049900000030003000300030003000300030003FF
:1049A000000300030003E003E00300000000000038
:1049B000C001C00160036003600330063006180CBC
:1049C000180C0000000000000000000000000000C3
:1049D00000000000000000000000000000000000D7
:1049E00000000000000000000000000000000000C7
:1049F0000000000000000000000000000000FFFFB9
:104A0000FFFF0000000000000000000000000C009C
:104A10000C000C000C000C000C000000000000005A
:104A20000000000000000000000000000000000086
:104A30000000000000000000000000000000000076
:104A40000000000000000000F003F8071C0C0C0C34
:104A5000000FF00FF80C0C0C0C0C1C0FF80FF018DA
:104A6000000000000000000000000000000018002E
:104A70001800180018001800D803F80F380C181880
:104A800018181818181818181818380CF80FD80310
:104A90000000000000000000000000000000000016
:104AA0000000000000000000C003F007300E180CEA
:104AB0001800180018001800180C300EF007C0037A
:104AC00000000000000000000000000000000018CE
:104AD0000018001800180018C01BF01F301C181810
:104AE00018181818181818181818301CF01FC01BA0
:104AF00000000000000000000000000000000000B6
:104B00000000000000000000C003F00F300C181877
:104B1000F81FF81F180018003818301CF00FC007D5
:104B20000000000000000000000000000000800FF6
:104B3000C00FC000C000C000F007F007C000C000F8
:104B4000C000C000C000C000C000C000C000C00065
:104B50000000000000000000000000000000000055
:104B60000000000000000000E00DF80F180E0C0C13
:104B70000C0C0C0C0C0C0C0C0C0C180EF80FE00DA3
:104B8000000C0C0C1C06F807F001000000001800D7
:104B90001800180018001800D807F80F381C18184B
:104BA0001818181818181818181818181818181885
:104BB0000000000000000000000000000000C00035
:104BC000C000000000000000C000C000C000C00025
:104BD000C000C000C000C000C000C000C000C000D5
:104BE0000000000000000000000000000000C00005
:104BF000C000000000000000C000C000C000C000F5
:104C0000C000C000C000C000C000C000C000C000A4
:104C1000C000C000C000F8007800000000000C00D8
:104C20000C000C000C000C000C0C0C060C038C018E
:104C3000CC006C00FC009C018C030C030C060C0CDB
:104C40000000000000000000000000000000C000A4
:104C5000C000C000C000C000C000C000C000C00054
:104C6000C000C000C000C000C000C000C000C00044
:104C70000000000000000000000000000000000034
:104C800000000000000000007C3CFF7EC7E383C101
:104C900083C183C183C183C183C183C183C183C1F4
:104CA0000000000000000000000000000000000004
:104CB00000000000000000009807F80F381C1818CA
:104CC0001818181818181818181818181818181864
:104CD00000000000000000000000000000000000D4
:104CE0000000000000000000C003F00F300C181896
:104CF00018181818181818181818300CF00FC003C6
:104D000000000000000000000000000000000000A3
:104D10000000000000000000D803F80F380C18183D
:104D200018181818181818181818380CF80FD8036D
:104D300018001800180018001800000000000000FB
:104D40000000000000000000C01BF01F301C1818FD
:104D500018181818181818181818301CF01FC01B2D
:104D600000180018001800180018000000000000CB
:104D70000000000000000000B007F00370003000E9
:104D800030003000300030003000300030003000A3
:104D90000000000000000000000000000000000013
:104DA0000000000000000000E003F003380E180CC3
:104DB0003800F003C007000C180C380EF007E003B1
:104DC00000000000000000000000000000000000E3
:104DD0008000C000C000C000F007F007C000C000A5
:104DE000C000C000C000C000C000C000C0078007F5
:104DF00000000000000000000000000000000000B3
:104E000000000000000000001818181818181818E2
:104E100018181818181818181818381CF01FE01946
:104E20000000000000000000000000000000000082
:104E300000000000000000000C18180C180C180CE2
:104E4000300630063006600360036003C001C00115
:104E50000000000000000000000000000000000052
:104E60000000000000000000C141C141C361636354
:104E7000636363633636363636361C1C1C1C1C1CBA
:104E80000000000000000000000000000000000022
:104E900000000000000000001C38381C300C6006C8
:104EA000C003C003C003C0036006300C381C1C38AC
:104EB00000000000000000000000000000000000F2
:104EC0000000000000000000183030183018701882
:104ED000600C600CE00CC006C006800380038003F9
:104EE00080018001C001F00070000000000000009F
:104EF0000000000000000000FC1FFC1F000C00066A
:104F000000038001C000600030001800FC1FFC1F7F
:104F1000000000000000000000000000000000038E
:104F20008001C000C000C000C000C000C000600020
:104F30006000300060004000C000C000C000C00041
:104F4000C000C000800100030000000000008001DC
:104F50008001800180018001800180018001800149
:104F60008001800180018001800180018001800139
:104F7000800180018001800180010000000060004C
:104F8000C000C00180018001800180018001000318
:104F90000003000600030001800180018001800100
:104FA00080018001C00060000000000000000000DF
:104FB000000000000000000000000000F010F81FDA
:104FC000080F0000000000000000000000000000CA
:104FD00000000000000000000000000000000000D1
:104FE00000000000000000000000000000000000C1
:104FF00000000000000000000000000000000000B1
:1050000000000000000000000000000000000000A0
:10501000000000000000C003300C08100420042031
:1050200002400240024002400240042004200810D6
:10503000300CC00300000000000000000000000071
:10504000000000000000C003F00FF81FFC3FFC3F11
:10505000FE7FFE7FFE7FFE7FFE7FFC3FFC3FF81F52
:10506000F00FC0030000000000000000000000007E
:1050700000000000000000000000E007F00F18181A
:1050800018181818181818181818F00FE00700004A
:105090000000000000000000000000000000000010
:1050A00000000000000000000000E007F00FF81F03
:1050B000F81FF81FF81FF81FF81FF00FE007000097
:1050C00000000000000000000000000000000000E0
:1050D00000000000000000000000000000000000D0
:1050E000000000008001C0036006300C181818187A
:1050F000F81FF81F00000000000000000000000082
:10510000000000000000000000000000000000009F
:10511000000000008001C003E007F00FF81FF81F37
:10512000F81FF81F00000000000000000000000051
:1051300000000000F81FF81F18181818300C60063F
:10514000C00380010000000000000000000000001B
:10515000000000000000000000000000000000004F
:1051600000000000F81FF81FF81FF81FF00FE007FD
:10517000C0038001000000000000000000000000EB
:10518000000000000000000000000000000000001F
:1051900000000000000000000000E001F0019801A4
:1051A0008C01860186018C019801F001E00100006C
:1051B00000000000000000000000000000000000EF
:1051C00000000000000000000000E001F001F80114
:1051D000FC01FE01FE01FC01F801F001E00100000C
:1051E00000000000000000000000000000000000BF
:1051F000000000000000000000008007800F801900
:1052000080318061806180318019800F80070000CB
:10521000000000000000000000000000000000008E
:10522000000000000000000000008007800F801FC9
:10523000803F807F807F803F801F800F800700003D
:105240000000000000000000000000000000C0019D
:105250002002200240013006080808080808080853
:105260000808080808082002200220022002200264
:105270002002200220022002200200000000C001C3
:10528000E003E003C001F007D80DD80DD80DD80D0C
:10529000D80DD80DD80D6003600360036003600370
:1052A0006003600360036003600300000000C0014E
:1052B00020022002400130060808080808080410EF
:1052C00002200220400120022002100408080808E1
:1052D0000410041004200440000000000000C0017D
:1052E000E003E003C001F007D80DD80DD80DCC19AC
:1052F000C631C261C001600360037006380C180C2F
:105300000C180C180C300C60000000002C5300002E
:105310000000001038000000080100006453000085
:1053200038000010100700002401000000E1F5051E
:105330000000FFFF0000780032001E00C8002201BC
:10534000BE0000000000000000000000000000009F
:10535000000100000000000000000000000000004C
:045360000000000049
:04000005000000CD2A
:00000001FF
